{
  "contractName": "InfoManage",
  "abi": [
    {
      "constant": true,
      "inputs": [
        {
          "internalType": "uint256",
          "name": "",
          "type": "uint256"
        }
      ],
      "name": "taskList",
      "outputs": [
        {
          "internalType": "uint256",
          "name": "index",
          "type": "uint256"
        },
        {
          "internalType": "address",
          "name": "rider",
          "type": "address"
        },
        {
          "internalType": "uint256",
          "name": "pickupLocation",
          "type": "uint256"
        },
        {
          "internalType": "uint256",
          "name": "pickoffLocation",
          "type": "uint256"
        },
        {
          "internalType": "uint256",
          "name": "minReputation",
          "type": "uint256"
        },
        {
          "internalType": "uint256",
          "name": "reward",
          "type": "uint256"
        },
        {
          "internalType": "uint256",
          "name": "deposit",
          "type": "uint256"
        },
        {
          "internalType": "address",
          "name": "driver",
          "type": "address"
        },
        {
          "internalType": "enum InfoManage.Status",
          "name": "status",
          "type": "uint8"
        }
      ],
      "payable": false,
      "stateMutability": "view",
      "type": "function"
    },
    {
      "constant": true,
      "inputs": [
        {
          "internalType": "string",
          "name": "userType",
          "type": "string"
        },
        {
          "internalType": "address",
          "name": "addr",
          "type": "address"
        }
      ],
      "name": "checkRegister",
      "outputs": [
        {
          "internalType": "bool",
          "name": "",
          "type": "bool"
        }
      ],
      "payable": false,
      "stateMutability": "view",
      "type": "function"
    },
    {
      "constant": false,
      "inputs": [
        {
          "internalType": "address",
          "name": "addr",
          "type": "address"
        },
        {
          "internalType": "string",
          "name": "username",
          "type": "string"
        },
        {
          "internalType": "string",
          "name": "teleNumber",
          "type": "string"
        },
        {
          "internalType": "string",
          "name": "password",
          "type": "string"
        },
        {
          "internalType": "string",
          "name": "profile",
          "type": "string"
        }
      ],
      "name": "riderRegister",
      "outputs": [],
      "payable": false,
      "stateMutability": "nonpayable",
      "type": "function"
    },
    {
      "constant": true,
      "inputs": [
        {
          "internalType": "string",
          "name": "userType",
          "type": "string"
        },
        {
          "internalType": "address",
          "name": "addr",
          "type": "address"
        },
        {
          "internalType": "string",
          "name": "password",
          "type": "string"
        }
      ],
      "name": "login",
      "outputs": [
        {
          "internalType": "bool",
          "name": "",
          "type": "bool"
        }
      ],
      "payable": false,
      "stateMutability": "view",
      "type": "function"
    },
    {
      "constant": false,
      "inputs": [
        {
          "internalType": "address",
          "name": "addr",
          "type": "address"
        },
        {
          "internalType": "string",
          "name": "username",
          "type": "string"
        },
        {
          "internalType": "string",
          "name": "teleNumber",
          "type": "string"
        },
        {
          "internalType": "string",
          "name": "password",
          "type": "string"
        },
        {
          "internalType": "string",
          "name": "profile",
          "type": "string"
        }
      ],
      "name": "driverRegister",
      "outputs": [],
      "payable": false,
      "stateMutability": "nonpayable",
      "type": "function"
    },
    {
      "constant": true,
      "inputs": [
        {
          "internalType": "address",
          "name": "addr",
          "type": "address"
        }
      ],
      "name": "getRiderInfo",
      "outputs": [
        {
          "internalType": "address",
          "name": "",
          "type": "address"
        },
        {
          "internalType": "string",
          "name": "",
          "type": "string"
        },
        {
          "internalType": "string",
          "name": "",
          "type": "string"
        },
        {
          "internalType": "string",
          "name": "",
          "type": "string"
        },
        {
          "internalType": "uint256",
          "name": "",
          "type": "uint256"
        }
      ],
      "payable": false,
      "stateMutability": "view",
      "type": "function"
    },
    {
      "constant": true,
      "inputs": [
        {
          "internalType": "address",
          "name": "addr",
          "type": "address"
        }
      ],
      "name": "getDriverInfo",
      "outputs": [
        {
          "internalType": "address",
          "name": "",
          "type": "address"
        },
        {
          "internalType": "string",
          "name": "",
          "type": "string"
        },
        {
          "internalType": "string",
          "name": "",
          "type": "string"
        },
        {
          "internalType": "string",
          "name": "",
          "type": "string"
        },
        {
          "internalType": "uint256",
          "name": "",
          "type": "uint256"
        },
        {
          "internalType": "uint256",
          "name": "",
          "type": "uint256"
        },
        {
          "internalType": "uint256",
          "name": "",
          "type": "uint256"
        }
      ],
      "payable": false,
      "stateMutability": "view",
      "type": "function"
    },
    {
      "constant": false,
      "inputs": [
        {
          "internalType": "string",
          "name": "userType",
          "type": "string"
        },
        {
          "internalType": "address",
          "name": "addr",
          "type": "address"
        },
        {
          "internalType": "string",
          "name": "newPassword",
          "type": "string"
        }
      ],
      "name": "updatePassword",
      "outputs": [],
      "payable": false,
      "stateMutability": "nonpayable",
      "type": "function"
    },
    {
      "constant": false,
      "inputs": [
        {
          "internalType": "string",
          "name": "userType",
          "type": "string"
        },
        {
          "internalType": "address",
          "name": "addr",
          "type": "address"
        },
        {
          "internalType": "string",
          "name": "newProfile",
          "type": "string"
        }
      ],
      "name": "updateProfile",
      "outputs": [],
      "payable": false,
      "stateMutability": "nonpayable",
      "type": "function"
    },
    {
      "constant": true,
      "inputs": [
        {
          "internalType": "address",
          "name": "addr",
          "type": "address"
        }
      ],
      "name": "getReputation",
      "outputs": [
        {
          "internalType": "uint256",
          "name": "",
          "type": "uint256"
        }
      ],
      "payable": false,
      "stateMutability": "view",
      "type": "function"
    },
    {
      "constant": false,
      "inputs": [
        {
          "internalType": "address",
          "name": "addr",
          "type": "address"
        },
        {
          "internalType": "uint256",
          "name": "newReputation",
          "type": "uint256"
        }
      ],
      "name": "updateReputation",
      "outputs": [],
      "payable": false,
      "stateMutability": "nonpayable",
      "type": "function"
    }
  ],
  "bytecode": "0x608060405234801561001057600080fd5b50612843806100206000396000f3fe608060405234801561001057600080fd5b50600436106100a95760003560e01c8063ac2e78dd11610071578063ac2e78dd14610628578063d6f19980146107b2578063e3d92e7314610924578063ea1d922514610bc4578063f5c91a0814610d93578063fbb3d5b914610de1576100a9565b806308892691146100ae578063219a7f27146101a15780632a1c52a51461037e578063783669581461045e5780639c89a0e2146105d0575b600080fd5b610187600480360360408110156100c457600080fd5b81019080803590602001906401000000008111156100e157600080fd5b8201836020820111156100f357600080fd5b8035906020019184600183028401116401000000008311171561011557600080fd5b91908080601f016020809104026020016040519081016040528093929190818152602001838380828437600081840152601f19601f820116905080830192505050505050509192919290803573ffffffffffffffffffffffffffffffffffffffff169060200190929190505050611081565b604051808215151515815260200191505060405180910390f35b6101e3600480360360208110156101b757600080fd5b81019080803573ffffffffffffffffffffffffffffffffffffffff169060200190929190505050611292565b604051808873ffffffffffffffffffffffffffffffffffffffff1673ffffffffffffffffffffffffffffffffffffffff16815260200180602001806020018060200187815260200186815260200185815260200184810384528a818151815260200191508051906020019080838360005b8381101561026f578082015181840152602081019050610254565b50505050905090810190601f16801561029c5780820380516001836020036101000a031916815260200191505b50848103835289818151815260200191508051906020019080838360005b838110156102d55780820151818401526020810190506102ba565b50505050905090810190601f1680156103025780820380516001836020036101000a031916815260200191505b50848103825288818151815260200191508051906020019080838360005b8381101561033b578082015181840152602081019050610320565b50505050905090810190601f1680156103685780820380516001836020036101000a031916815260200191505b509a505050505050505050505060405180910390f35b6103aa6004803603602081101561039457600080fd5b81019080803590602001909291905050506116c6565b604051808a81526020018973ffffffffffffffffffffffffffffffffffffffff1673ffffffffffffffffffffffffffffffffffffffff1681526020018881526020018781526020018681526020018581526020018481526020018373ffffffffffffffffffffffffffffffffffffffff1673ffffffffffffffffffffffffffffffffffffffff16815260200182600481111561044257fe5b60ff168152602001995050505050505050505060405180910390f35b6105ce6004803603606081101561047457600080fd5b810190808035906020019064010000000081111561049157600080fd5b8201836020820111156104a357600080fd5b803590602001918460018302840111640100000000831117156104c557600080fd5b91908080601f016020809104026020016040519081016040528093929190818152602001838380828437600081840152601f19601f820116905080830192505050505050509192919290803573ffffffffffffffffffffffffffffffffffffffff1690602001909291908035906020019064010000000081111561054857600080fd5b82018360208201111561055a57600080fd5b8035906020019184600183028401116401000000008311171561057c57600080fd5b91908080601f016020809104026020016040519081016040528093929190818152602001838380828437600081840152601f19601f82011690508083019250505050505050919291929050505061176e565b005b610612600480360360208110156105e657600080fd5b81019080803573ffffffffffffffffffffffffffffffffffffffff1690602001909291905050506119f4565b6040518082815260200191505060405180910390f35b6107986004803603606081101561063e57600080fd5b810190808035906020019064010000000081111561065b57600080fd5b82018360208201111561066d57600080fd5b8035906020019184600183028401116401000000008311171561068f57600080fd5b91908080601f016020809104026020016040519081016040528093929190818152602001838380828437600081840152601f19601f820116905080830192505050505050509192919290803573ffffffffffffffffffffffffffffffffffffffff1690602001909291908035906020019064010000000081111561071257600080fd5b82018360208201111561072457600080fd5b8035906020019184600183028401116401000000008311171561074657600080fd5b91908080601f016020809104026020016040519081016040528093929190818152602001838380828437600081840152601f19601f820116905080830192505050505050509192919290505050611a89565b604051808215151515815260200191505060405180910390f35b610922600480360360608110156107c857600080fd5b81019080803590602001906401000000008111156107e557600080fd5b8201836020820111156107f757600080fd5b8035906020019184600183028401116401000000008311171561081957600080fd5b91908080601f016020809104026020016040519081016040528093929190818152602001838380828437600081840152601f19601f820116905080830192505050505050509192919290803573ffffffffffffffffffffffffffffffffffffffff1690602001909291908035906020019064010000000081111561089c57600080fd5b8201836020820111156108ae57600080fd5b803590602001918460018302840111640100000000831117156108d057600080fd5b91908080601f016020809104026020016040519081016040528093929190818152602001838380828437600081840152601f19601f820116905080830192505050505050509192919290505050611cdb565b005b610bc2600480360360a081101561093a57600080fd5b81019080803573ffffffffffffffffffffffffffffffffffffffff1690602001909291908035906020019064010000000081111561097757600080fd5b82018360208201111561098957600080fd5b803590602001918460018302840111640100000000831117156109ab57600080fd5b91908080601f016020809104026020016040519081016040528093929190818152602001838380828437600081840152601f19601f82011690508083019250505050505050919291929080359060200190640100000000811115610a0e57600080fd5b820183602082011115610a2057600080fd5b80359060200191846001830284011164010000000083111715610a4257600080fd5b91908080601f016020809104026020016040519081016040528093929190818152602001838380828437600081840152601f19601f82011690508083019250505050505050919291929080359060200190640100000000811115610aa557600080fd5b820183602082011115610ab757600080fd5b80359060200191846001830284011164010000000083111715610ad957600080fd5b91908080601f016020809104026020016040519081016040528093929190818152602001838380828437600081840152601f19601f82011690508083019250505050505050919291929080359060200190640100000000811115610b3c57600080fd5b820183602082011115610b4e57600080fd5b80359060200191846001830284011164010000000083111715610b7057600080fd5b91908080601f016020809104026020016040519081016040528093929190818152602001838380828437600081840152601f19601f820116905080830192505050505050509192919290505050611e9f565b005b610c0660048036036020811015610bda57600080fd5b81019080803573ffffffffffffffffffffffffffffffffffffffff1690602001909291905050506120b9565b604051808673ffffffffffffffffffffffffffffffffffffffff1673ffffffffffffffffffffffffffffffffffffffff168152602001806020018060200180602001858152602001848103845288818151815260200191508051906020019080838360005b83811015610c86578082015181840152602081019050610c6b565b50505050905090810190601f168015610cb35780820380516001836020036101000a031916815260200191505b50848103835287818151815260200191508051906020019080838360005b83811015610cec578082015181840152602081019050610cd1565b50505050905090810190601f168015610d195780820380516001836020036101000a031916815260200191505b50848103825286818151815260200191508051906020019080838360005b83811015610d52578082015181840152602081019050610d37565b50505050905090810190601f168015610d7f5780820380516001836020036101000a031916815260200191505b509850505050505050505060405180910390f35b610ddf60048036036040811015610da957600080fd5b81019080803573ffffffffffffffffffffffffffffffffffffffff1690602001909291908035906020019092919050505061245e565b005b61107f600480360360a0811015610df757600080fd5b81019080803573ffffffffffffffffffffffffffffffffffffffff16906020019092919080359060200190640100000000811115610e3457600080fd5b820183602082011115610e4657600080fd5b80359060200191846001830284011164010000000083111715610e6857600080fd5b91908080601f016020809104026020016040519081016040528093929190818152602001838380828437600081840152601f19601f82011690508083019250505050505050919291929080359060200190640100000000811115610ecb57600080fd5b820183602082011115610edd57600080fd5b80359060200191846001830284011164010000000083111715610eff57600080fd5b91908080601f016020809104026020016040519081016040528093929190818152602001838380828437600081840152601f19601f82011690508083019250505050505050919291929080359060200190640100000000811115610f6257600080fd5b820183602082011115610f7457600080fd5b80359060200191846001830284011164010000000083111715610f9657600080fd5b91908080601f016020809104026020016040519081016040528093929190818152602001838380828437600081840152601f19601f82011690508083019250505050505050919291929080359060200190640100000000811115610ff957600080fd5b82018360208201111561100b57600080fd5b8035906020019184600183028401116401000000008311171561102d57600080fd5b91908080601f016020809104026020016040519081016040528093929190818152602001838380828437600081840152601f19601f8201169050808301925050505050505091929192905050506124f2565b005b600060405160200180807f7269646572000000000000000000000000000000000000000000000000000000815250600501905060405160208183030381529060405280519060200120836040516020018082805190602001908083835b6020831061110157805182526020820191506020810190506020830392506110de565b6001836020036101000a0380198251168184511680821785525050505050509050019150506040516020818303038152906040528051906020012014156111e957600073ffffffffffffffffffffffffffffffffffffffff16600160008473ffffffffffffffffffffffffffffffffffffffff1673ffffffffffffffffffffffffffffffffffffffff16815260200190815260200160002060000160009054906101000a900473ffffffffffffffffffffffffffffffffffffffff1673ffffffffffffffffffffffffffffffffffffffff16116111df5760016111e2565b60005b905061128c565b600073ffffffffffffffffffffffffffffffffffffffff16600260008473ffffffffffffffffffffffffffffffffffffffff1673ffffffffffffffffffffffffffffffffffffffff16815260200190815260200160002060000160009054906101000a900473ffffffffffffffffffffffffffffffffffffffff1673ffffffffffffffffffffffffffffffffffffffff1611611286576001611289565b60005b90505b92915050565b6000606080606060008060006112dd6040518060400160405280600681526020017f647269766572000000000000000000000000000000000000000000000000000081525089611081565b156112e757600080fd5b600260008973ffffffffffffffffffffffffffffffffffffffff1673ffffffffffffffffffffffffffffffffffffffff16815260200190815260200160002060000160009054906101000a900473ffffffffffffffffffffffffffffffffffffffff16600260008a73ffffffffffffffffffffffffffffffffffffffff1673ffffffffffffffffffffffffffffffffffffffff168152602001908152602001600020600101600260008b73ffffffffffffffffffffffffffffffffffffffff1673ffffffffffffffffffffffffffffffffffffffff168152602001908152602001600020600201600260008c73ffffffffffffffffffffffffffffffffffffffff1673ffffffffffffffffffffffffffffffffffffffff168152602001908152602001600020600401600260008d73ffffffffffffffffffffffffffffffffffffffff1673ffffffffffffffffffffffffffffffffffffffff16815260200190815260200160002060050154600260008e73ffffffffffffffffffffffffffffffffffffffff1673ffffffffffffffffffffffffffffffffffffffff16815260200190815260200160002060060154600260008f73ffffffffffffffffffffffffffffffffffffffff1673ffffffffffffffffffffffffffffffffffffffff16815260200190815260200160002060070154858054600181600116156101000203166002900480601f01602080910402602001604051908101604052809291908181526020018280546001816001161561010002031660029004801561156e5780601f106115435761010080835404028352916020019161156e565b820191906000526020600020905b81548152906001019060200180831161155157829003601f168201915b50505050509550848054600181600116156101000203166002900480601f01602080910402602001604051908101604052809291908181526020018280546001816001161561010002031660029004801561160a5780601f106115df5761010080835404028352916020019161160a565b820191906000526020600020905b8154815290600101906020018083116115ed57829003601f168201915b50505050509450838054600181600116156101000203166002900480601f0160208091040260200160405190810160405280929190818152602001828054600181600116156101000203166002900480156116a65780601f1061167b576101008083540402835291602001916116a6565b820191906000526020600020905b81548152906001019060200180831161168957829003601f168201915b505050505093509650965096509650965096509650919395979092949650565b600081815481106116d357fe5b90600052602060002090600802016000915090508060000154908060010160009054906101000a900473ffffffffffffffffffffffffffffffffffffffff16908060020154908060030154908060040154908060050154908060060154908060070160009054906101000a900473ffffffffffffffffffffffffffffffffffffffff16908060070160149054906101000a900460ff16905089565b3373ffffffffffffffffffffffffffffffffffffffff168273ffffffffffffffffffffffffffffffffffffffff16146117a657600080fd5b6117b08383611081565b156117ba57600080fd5b60405160200180807f7269646572000000000000000000000000000000000000000000000000000000815250600501905060405160208183030381529060405280519060200120836040516020018082805190602001908083835b602083106118385780518252602082019150602081019050602083039250611815565b6001836020036101000a03801982511681845116808217855250505050505090500191505060405160208183030381529060405280519060200120141561193657806040516020018082805190602001908083835b602083106118b0578051825260208201915060208101905060208303925061188d565b6001836020036101000a03801982511681845116808217855250505050505090500191505060405160208183030381529060405280519060200120600160008473ffffffffffffffffffffffffffffffffffffffff1673ffffffffffffffffffffffffffffffffffffffff168152602001908152602001600020600301819055506119ef565b806040516020018082805190602001908083835b6020831061196d578051825260208201915060208101905060208303925061194a565b6001836020036101000a03801982511681845116808217855250505050505090500191505060405160208183030381529060405280519060200120600260008473ffffffffffffffffffffffffffffffffffffffff1673ffffffffffffffffffffffffffffffffffffffff168152602001908152602001600020600301819055505b505050565b6000611a356040518060400160405280600681526020017f647269766572000000000000000000000000000000000000000000000000000081525083611081565b15611a3f57600080fd5b600260008373ffffffffffffffffffffffffffffffffffffffff1673ffffffffffffffffffffffffffffffffffffffff168152602001908152602001600020600701549050919050565b6000611a958484611081565b15611a9f57600080fd5b60405160200180807f7269646572000000000000000000000000000000000000000000000000000000815250600501905060405160208183030381529060405280519060200120846040516020018082805190602001908083835b60208310611b1d5780518252602082019150602081019050602083039250611afa565b6001836020036101000a038019825116818451168082178552505050505050905001915050604051602081830303815290604052805190602001201415611c1b57816040516020018082805190602001908083835b60208310611b955780518252602082019150602081019050602083039250611b72565b6001836020036101000a03801982511681845116808217855250505050505090500191505060405160208183030381529060405280519060200120600160008573ffffffffffffffffffffffffffffffffffffffff1673ffffffffffffffffffffffffffffffffffffffff16815260200190815260200160002060030154149050611cd4565b816040516020018082805190602001908083835b60208310611c525780518252602082019150602081019050602083039250611c2f565b6001836020036101000a03801982511681845116808217855250505050505090500191505060405160208183030381529060405280519060200120600260008573ffffffffffffffffffffffffffffffffffffffff1673ffffffffffffffffffffffffffffffffffffffff168152602001908152602001600020600301541490505b9392505050565b3373ffffffffffffffffffffffffffffffffffffffff168273ffffffffffffffffffffffffffffffffffffffff1614611d1357600080fd5b611d1d8383611081565b15611d2757600080fd5b60405160200180807f7269646572000000000000000000000000000000000000000000000000000000815250600501905060405160208183030381529060405280519060200120836040516020018082805190602001908083835b60208310611da55780518252602082019150602081019050602083039250611d82565b6001836020036101000a038019825116818451168082178552505050505050905001915050604051602081830303815290604052805190602001201415611e425780600160008473ffffffffffffffffffffffffffffffffffffffff1673ffffffffffffffffffffffffffffffffffffffff1681526020019081526020016000206004019080519060200190611e3c9291906126e9565b50611e9a565b80600260008473ffffffffffffffffffffffffffffffffffffffff1673ffffffffffffffffffffffffffffffffffffffff1681526020019081526020016000206004019080519060200190611e989291906126e9565b505b505050565b611ede6040518060400160405280600681526020017f647269766572000000000000000000000000000000000000000000000000000081525086611081565b611ee757600080fd5b6040518061010001604052808673ffffffffffffffffffffffffffffffffffffffff168152602001858152602001848152602001836040516020018082805190602001908083835b60208310611f525780518252602082019150602081019050602083039250611f2f565b6001836020036101000a03801982511681845116808217855250505050505090500191505060405160208183030381529060405280519060200120815260200182815260200142815260200160008152602001603c815250600260008773ffffffffffffffffffffffffffffffffffffffff1673ffffffffffffffffffffffffffffffffffffffff16815260200190815260200160002060008201518160000160006101000a81548173ffffffffffffffffffffffffffffffffffffffff021916908373ffffffffffffffffffffffffffffffffffffffff160217905550602082015181600101908051906020019061204c929190612769565b506040820151816002019080519060200190612069929190612769565b50606082015181600301556080820151816004019080519060200190612090929190612769565b5060a0820151816005015560c0820151816006015560e082015181600701559050505050505050565b6000606080606060006121016040518060400160405280600581526020017f726964657200000000000000000000000000000000000000000000000000000081525087611081565b1561210b57600080fd5b600160008773ffffffffffffffffffffffffffffffffffffffff1673ffffffffffffffffffffffffffffffffffffffff16815260200190815260200160002060000160009054906101000a900473ffffffffffffffffffffffffffffffffffffffff16600160008873ffffffffffffffffffffffffffffffffffffffff1673ffffffffffffffffffffffffffffffffffffffff168152602001908152602001600020600101600160008973ffffffffffffffffffffffffffffffffffffffff1673ffffffffffffffffffffffffffffffffffffffff168152602001908152602001600020600201600160008a73ffffffffffffffffffffffffffffffffffffffff1673ffffffffffffffffffffffffffffffffffffffff168152602001908152602001600020600401600160008b73ffffffffffffffffffffffffffffffffffffffff1673ffffffffffffffffffffffffffffffffffffffff16815260200190815260200160002060050154838054600181600116156101000203166002900480601f01602080910402602001604051908101604052809291908181526020018280546001816001161561010002031660029004801561230c5780601f106122e15761010080835404028352916020019161230c565b820191906000526020600020905b8154815290600101906020018083116122ef57829003601f168201915b50505050509350828054600181600116156101000203166002900480601f0160208091040260200160405190810160405280929190818152602001828054600181600116156101000203166002900480156123a85780601f1061237d576101008083540402835291602001916123a8565b820191906000526020600020905b81548152906001019060200180831161238b57829003601f168201915b50505050509250818054600181600116156101000203166002900480601f0160208091040260200160405190810160405280929190818152602001828054600181600116156101000203166002900480156124445780601f1061241957610100808354040283529160200191612444565b820191906000526020600020905b81548152906001019060200180831161242757829003601f168201915b505050505091509450945094509450945091939590929450565b61249d6040518060400160405280600681526020017f647269766572000000000000000000000000000000000000000000000000000081525083611081565b156124a757600080fd5b80600260008473ffffffffffffffffffffffffffffffffffffffff1673ffffffffffffffffffffffffffffffffffffffff168152602001908152602001600020600701819055505050565b6125316040518060400160405280600581526020017f726964657200000000000000000000000000000000000000000000000000000081525086611081565b61253a57600080fd5b6040518060c001604052808673ffffffffffffffffffffffffffffffffffffffff168152602001858152602001848152602001836040516020018082805190602001908083835b602083106125a45780518252602082019150602081019050602083039250612581565b6001836020036101000a03801982511681845116808217855250505050505090500191505060405160208183030381529060405280519060200120815260200182815260200142815250600160008773ffffffffffffffffffffffffffffffffffffffff1673ffffffffffffffffffffffffffffffffffffffff16815260200190815260200160002060008201518160000160006101000a81548173ffffffffffffffffffffffffffffffffffffffff021916908373ffffffffffffffffffffffffffffffffffffffff1602179055506020820151816001019080519060200190612690929190612769565b5060408201518160020190805190602001906126ad929190612769565b506060820151816003015560808201518160040190805190602001906126d4929190612769565b5060a082015181600501559050505050505050565b828054600181600116156101000203166002900490600052602060002090601f016020900481019282601f1061272a57805160ff1916838001178555612758565b82800160010185558215612758579182015b8281111561275757825182559160200191906001019061273c565b5b50905061276591906127e9565b5090565b828054600181600116156101000203166002900490600052602060002090601f016020900481019282601f106127aa57805160ff19168380011785556127d8565b828001600101855582156127d8579182015b828111156127d75782518255916020019190600101906127bc565b5b5090506127e591906127e9565b5090565b61280b91905b808211156128075760008160009055506001016127ef565b5090565b9056fea265627a7a72315820ba5ed7a0edb3f801b166ebc5e5af1ddf0c4cb27f6dee4fafce601e3a1dd6123d64736f6c63430005100032",
  "source": "// SPDX-License-Identifier: MIT\r\npragma solidity >=0.4.2 <0.8.0;\r\n\r\ncontract InfoManage {\r\n    struct Rider {\r\n        address addr;\r\n        string username;\r\n        string teleNumber;\r\n        bytes32 password;\r\n        string profile;\r\n        uint registerTime;\r\n    }\r\n\r\n    struct Driver {\r\n        address addr;\r\n        string username;\r\n        string teleNumber;\r\n        bytes32 password;\r\n        string profile;\r\n        uint registerTime;\r\n        uint finishedTaskNum;\r\n        uint reputation;        \r\n    }\r\n\r\n    struct Task {\r\n        uint index;//start from 0\r\n        address rider;\r\n        uint pickupLocation;\r\n        uint pickoffLocation;\r\n        uint minReputation;\r\n        uint reward;\r\n        uint deposit;\r\n        address driver;\r\n        Status status;\r\n    }\r\n\r\n    enum Status {\r\n        Unclaimed,\r\n        Claimed,\r\n        ReachedpickupLocation,\r\n        ReachedpickoffLocation,\r\n        Completed\r\n    }\r\n\r\n    Task[] public taskList;\r\n    mapping(address => Rider) riderList;\r\n    mapping(address => Driver) driverList;\r\n\r\n    //addr has been registered => false\r\n    function checkRegister(string memory userType, address addr) public view returns (bool) {\r\n        if(keccak256(abi.encodePacked(userType)) == keccak256(abi.encodePacked(\"rider\")))\r\n            return riderList[addr].addr > address(0x0) ? false : true ;\r\n        else \r\n            return driverList[addr].addr > address(0x0) ? false : true ;\r\n    }\r\n\r\n    function riderRegister(address addr, string memory username, string memory teleNumber, string memory password, string memory profile) public {\r\n        require(checkRegister(\"rider\", addr));\r\n        riderList[addr] = Rider(addr, username, teleNumber, keccak256(abi.encodePacked(password)), profile, block.timestamp);\r\n    }\r\n\r\n    function login(string memory userType, address addr, string memory password) public view returns (bool) {\r\n        require(!checkRegister(userType, addr));\r\n        if(keccak256(abi.encodePacked(userType)) == keccak256(abi.encodePacked(\"rider\"))) {\r\n            return riderList[addr].password == keccak256(abi.encodePacked(password));\r\n        }\r\n        else {\r\n            return driverList[addr].password == keccak256(abi.encodePacked(password));\r\n        }\r\n    }\r\n\r\n    function driverRegister(address addr, string memory username, string memory teleNumber, string memory password, string memory profile) public {\r\n        require(checkRegister(\"driver\", addr));\r\n        //driver's initial reputation: 60\r\n        driverList[addr] = Driver(addr, username, teleNumber, keccak256(abi.encodePacked(password)), profile, block.timestamp, 0, 60);\r\n    }\r\n\r\n    function getRiderInfo(address addr) public view returns (address, string memory, string memory, string memory, uint) {\r\n        require(!checkRegister(\"rider\", addr));\r\n        return (riderList[addr].addr, riderList[addr].username, riderList[addr].teleNumber, riderList[addr].profile, riderList[addr].registerTime);\r\n    }\r\n\r\n    function getDriverInfo(address addr) public view returns (address, string memory, string memory, string memory, uint, uint, uint) {\r\n        require(!checkRegister(\"driver\", addr));\r\n        return (driverList[addr].addr, driverList[addr].username, driverList[addr].teleNumber, driverList[addr].profile, driverList[addr].registerTime, driverList[addr].finishedTaskNum, driverList[addr].reputation);\r\n    }\r\n\r\n    function updatePassword(string memory userType, address addr, string memory newPassword) public {\r\n        require(addr == msg.sender);\r\n        require(!checkRegister(userType, addr));\r\n        if(keccak256(abi.encodePacked(userType)) == keccak256(abi.encodePacked(\"rider\")))\r\n            riderList[addr].password = keccak256(abi.encodePacked(newPassword));\r\n        else \r\n            driverList[addr].password = keccak256(abi.encodePacked(newPassword));\r\n    }\r\n\r\n    function updateProfile(string memory userType, address addr, string memory newProfile) public {\r\n        require(addr == msg.sender);\r\n        require(!checkRegister(userType, addr));\r\n        if(keccak256(abi.encodePacked(userType)) == keccak256(abi.encodePacked(\"rider\")))\r\n            riderList[addr].profile = newProfile;\r\n        else \r\n            driverList[addr].profile = newProfile;\r\n    }\r\n\r\n    function getReputation(address addr) public view returns (uint) {\r\n        require(!checkRegister(\"driver\", addr));\r\n        return driverList[addr].reputation;\r\n    }\r\n\r\n    function updateReputation(address addr, uint newReputation) public {\r\n        require(!checkRegister(\"driver\", addr));\r\n        driverList[addr].reputation = newReputation;\r\n    }\r\n\r\n}\r\n\r\n\r\ncontract RideHailing is InfoManage{\r\n\r\n    int public blockUint = 1000000;\r\n    int public initLongitude = 311000000;\r\n    int public initLatitude = 121000000;\r\n    int public rowSize = 1000;\r\n    uint public rewardPerBlock = 10;\r\n                                \r\n    \r\n    function getLocation(int _longitude, int _latitude) public view returns(uint){\r\n        return uint(((_longitude - initLongitude) / blockUint) * rowSize + ((_latitude - initLatitude) / blockUint)); \r\n    }\r\n\r\n    function calculateReward(uint _pickupLocation, uint _pickoffLocation) public view returns(uint) {\r\n        uint distance = _pickupLocation - _pickoffLocation > 0 ? _pickupLocation - _pickoffLocation : _pickoffLocation - _pickupLocation;\r\n        return distance * rewardPerBlock;\r\n    }\r\n\r\n    function calculateDeposit(uint _pickupLocation, uint _pickoffLocation) public view returns(uint) {\r\n        uint distance = _pickupLocation - _pickoffLocation > 0 ? _pickupLocation - _pickoffLocation : _pickoffLocation - _pickupLocation;\r\n        return distance * rewardPerBlock;\r\n    }\r\n\r\n    function publishTask(int _startLongitude, int _startLatitude, int _endLongitude, int _endLatitude, uint _minReputation) public payable returns (uint _index){\r\n        uint pickupLocation = getLocation(_startLongitude, _startLatitude);\r\n        uint dropoffLocation = getLocation(_endLongitude, _endLatitude);\r\n        uint _reward = calculateReward(pickupLocation, dropoffLocation);\r\n        uint _deposit = calculateDeposit(pickupLocation, dropoffLocation);\r\n\r\n        //rider pays the _reward\r\n        require(msg.value >= _reward);\r\n\r\n        taskList.push(Task(taskList.length, msg.sender, pickupLocation, dropoffLocation, _minReputation, _reward, _deposit,  address(0x0), Status.Unclaimed));\r\n\r\n        return taskList.length - 1;\r\n    }\r\n\r\n    function getTaskInfo(uint taskId) public view returns (uint, address, uint, uint, uint, uint, uint, address, Status) {\r\n        Task memory _task = taskList[taskId];\r\n        return (_task.index, _task.rider, _task.pickupLocation, _task.pickoffLocation, _task.minReputation, _task.reward, _task.deposit, _task.driver, _task.status);\r\n    }\r\n\r\n    function receiveTask(uint taskId) public payable {\r\n        require(msg.value >= taskList[taskId].deposit);\r\n        require(taskList[taskId].status == Status.Unclaimed);\r\n        require(driverList[msg.sender].reputation >= taskList[taskId].minReputation);\r\n\r\n        //update task's driver\r\n        taskList[taskId].driver = msg.sender;\r\n\r\n        //update task's status\r\n        taskList[taskId].status = Status.Claimed;\r\n    }\r\n\r\n    function proofReachPickupLocation(uint taskId) public pure returns (bool) {\r\n\r\n        return true;\r\n    }\r\n\r\n    function pickupRider(uint taskId) public {\r\n        require(proofReachPickupLocation(taskId));\r\n\r\n        //update task's status\r\n        taskList[taskId].status = Status.ReachedpickupLocation;\r\n\r\n        //return deposit\r\n        msg.sender.transfer(taskList[taskId].deposit);\r\n    }\r\n\r\n    function proofReachpickoffLocation(uint taskId) public pure returns (bool) {\r\n\r\n        return true;\r\n    }\r\n\r\n    function reachpickoffLocation(uint taskId) public {\r\n        require(proofReachpickoffLocation(taskId));\r\n\r\n        //update task's status\r\n        taskList[taskId].status = Status.ReachedpickoffLocation;\r\n    }\r\n\r\n    function calculateReputation(uint taskId) public view returns (uint) {\r\n        if(proofReachpickoffLocation(taskId))\r\n            return driverList[msg.sender].reputation + 1;\r\n        else\r\n            return driverList[msg.sender].reputation > 0 ? driverList[msg.sender].reputation - 5 : 0; \r\n    }\r\n\r\n    function getReward(uint taskId) public {\r\n        //update reputation\r\n        driverList[msg.sender].reputation = calculateReputation(taskId);\r\n\r\n        require(proofReachpickoffLocation(taskId));\r\n        msg.sender.transfer(taskList[taskId].reward);\r\n\r\n        //update task's status\r\n        taskList[taskId].status = Status.Completed;\r\n    }\r\n\r\n}",
  "sourcePath": "C:\\Users\\jc\\OneDrive\\\\project\\BDRideHialing\\contracts\\RideHailing.sol",
  "compiler": {
    "name": "solc",
    "version": "0.5.16+commit.9c3226ce.Emscripten.clang"
  },
  "schemaVersion": "3.0.23",
  "updatedAt": "2023-01-11T03:08:53.314Z",
  "devdoc": {
    "methods": {}
  },
  "userdoc": {
    "methods": {}
  }
}